:020000040800F2
:1000000038050020050100084B1B0008BB1900083B
:10001000491B0008B5030008E520000800000000A7
:10002000000000000000000000000000751B000838
:10003000B7030008000000004D1B0008771B0008F4
:100040001F0100081F0100081F0100081F01000810
:100050001F0100081F0100081F0100081F01000800
:100060001F0100081F0100081F0100081F010008F0
:100070001F0100081F0100081F0100081F010008E0
:100080001F0100081F0100081F0100081F010008D0
:100090001F0100081F0100081F0100081F010008C0
:1000A0001F0100081F0100081F0100081F010008B0
:1000B000CD1B00081F0100081F0100081F010008D8
:1000C0001F0100081F0100081F0100081F01000890
:1000D0001F010008D92000081F0100081F010008A7
:1000E0001F0100081F0100081F010008DFF810D0E1
:1000F00000F04EF90048004705210008AFF30080EA
:10010000380500200648804706480047FEE7FEE71E
:10011000FEE7FEE7FEE7FEE7FEE7FEE7FEE7FEE7B7
:10012000C91B0008ED000008D2B201E000F8012B65
:10013000491EFBD270470022F6E710B513460A4667
:1001400004461946FFF7F0FF204610BDF0B480EAE0
:100150000102D40F4200B2EB410F02D20246084620
:1001600011464A0042D0C30DDDB2C1F3C752AD1AE9
:10017000202D35DAC1F3160141F4000204B15242D8
:10018000C5F1200602FA06F12A411044B3EBD05F14
:1001900023D0C4B1012DA0EBC35009DCF0BC4FF05B
:1001A000004202EAC352DBB200F5000000F0C1B821
:1001B000400000F1807000EBC350A0F1807040EA75
:1001C000D170490009E0490841EAC071A0EBC35071
:1001D00000F50000400800EBC350F0BC00F0A0B8F0
:1001E0006142012202EB4101001BF6E7F0BC7047BF
:1001F00081F00041AAE780F00040A7E780EA010211
:1002000010B502F00043400022D04A001FD0010E7A
:1002100001EB1261C0F35600C2F3560240F4000035
:1002200042F40002A0FB022000047F39140400D035
:10023000401C50EA124001D44000491EC2B20C06D4
:1002400004EBD010401C4008802A02D003E00020BC
:1002500010BD20F00100002900DA0020184310BD75
:1002600030B480EA010202F0004530F0004221F093
:10027000004013D090B1C30DD40DC2F31601C0F3EA
:100280001600E41A41F4000140F400027D3491426A
:1002900001D3641C00E04900002C02DA30BC0020CD
:1002A00070474FF400000023914201D3891A0343A1
:1002B00040084FEA4101F7D151B1914202D14FF0CC
:1002C000004105E002D24FF0010101E06FF00101B1
:1002D00003EBC450284430BC00F022B8C10F80EAC0
:1002E000E0700844CA079623002100F022B800F00D
:1002F000004220F00040C10DC0F3160040F40000A1
:100300007F2901DA00207047962903DCC1F19601AC
:10031000C84001E096398840002AF4D04042704736
:100320000029A8BF7047401C490008BF20F0010009
:10033000704710B4B0FA80FC00FA0CF050EA0104E7
:1003400004BF10BC704749B1CCF1200421FA04F479
:1003500011FA0CF118BF012121430843A3EB0C0152
:10036000CB1D4FEA00614FEA102042BF002010BCB5
:10037000704700EBC35010440029A4BF10BC704765
:10038000401C490008BF20F0010010BC704700006D
:10039000064C074D06E0E06840F0010394E80700D2
:1003A00098471034AC42F6D3FFF7A4FEC8210008EA
:1003B000E8210008FEE7704790F82110002202298A
:1003C00005D00421816380F8202001207047016856
:1003D0000B6823F00E030B6001680B6823F0010328
:1003E0000B6090F84030D0F83CC0012101FA03F3D3
:1003F000CCF8043080F8211080F820201046704797
:1004000010B5002490F82110022903D00421816343
:10041000012437E001680A6822F00E020A600168D0
:100420000A6822F001020A60174A0168914201D16C
:1004300001211CE0154A914201D1102117E0144A14
:10044000914201D1891512E0124A914201D18914D9
:100450000DE0114A914202D14FF4803107E00F4A7A
:10046000914202D14FF4801101E04FF080710C4AAB
:100470005160012180F82110002180F82010416B8B
:1004800001B18847204610BD080002401C00024010
:100490003000024044000240580002406C0002401C
:1004A0000000024070B5044600F01EF90546B4F1A4
:1004B000FF3F02D004480078044400F015F9401BC7
:1004C000A042FAD370BD00002C0000202DE9F84FA7
:1004D0004FF0000C00230A68002A7DD0DFF8DC8191
:1004E0000F2708F1040909F1040A0AF1040B01229B
:1004F00002FA0CF60A683240B2426ED1DFF8C0E16F
:100500004C68A4EB0E0574452BD00DDC032C34D0C5
:1005100005DC34B3012C19D0022C2FD11BE0112C97
:1005200016D0122C2AD119E0B5F5881F19D006DC97
:10053000B5F5803F15D0B5F5801F1FD111E0B5F599
:10054000001F0ED0B5F5041F18D10AE0CB6815E0E6
:10055000CB681B1D12E0CB6808330FE0CB680C336F
:100560000CE08B6823B1012B04D00823466105E021
:10057000042303E00823066100E00023B2F5807F36
:1005800001D2054601E000F1040502D24FEA8C04D5
:1005900003E0ACF108044FEA84042E6807FA04FE75
:1005A00026EA0E0603FA04F446EA04042C604C68BA
:1005B00014F0805F79D0434CA56945F00105A56131
:1005C000A46904F0010400942CF0030404F18044B5
:1005D00004F58034A66801E06EE066E04FEA8C75B1
:1005E0004FEA157507FA05FE26EA0E0EA0F18046C1
:1005F000B6F584361ED0A0F18046B6F586361BD0FF
:10060000A0F18046B6F5883618D0A0F18046B6F540
:100610008A3615D0042606FA05F545EA0E05A560CA
:100620004C6814F4803F0DD0D8F800401443C8F84B
:1006300000400CE00026EEE70126ECE70226EAE7A0
:100640000326E8E7D8F800409443C8F800404C6817
:1006500014F4003F05D0D9F800401443C9F8004015
:1006600004E0D9F800409443C9F800404C6814F401
:10067000801F05D0DAF800401443CAF8004004E0B7
:10068000DAF800409443CAF800404C6814F4001FA4
:1006900005D0DBF800402243CBF8002005E0DBF872
:1006A000004024EA0202CBF800200CF1010C0A6899
:1006B00032FA0CF27FF41BAFBDE8F88F0004014062
:1006C0000000111000100240C26821EA020311402C
:1006D00043EA014101617047002A01D0016170477E
:1006E00009040161704700000148806870470000FC
:1006F0002C00002002488168027811448160704714
:100700002C00002010B50748016841F0100101607D
:10071000032000F08BF8002000F006F800F026F827
:10072000002010BD0020024070B504460D4D4FF46E
:100730007A712878B1FBF0F00B490968B1FBF0F051
:1007400000F0BEFB08B1012070BD102C07D20022C2
:100750002146501E00F036F86C60002070BD01206C
:1007600070BD00002C000020380000200C4808B5A7
:10077000816941F001018161816901F0010100910C
:10078000C16941F08051C161C06900F080500090A2
:100790000448416821F0E06141F00071416008BD0A
:1007A000001002400000014000280ADB00F01F0199
:1007B000012202FA01F14009800000F1E020C0F8B6
:1007C0000011704710B4184B1B68C3F30223C3F128
:1007D000070CBCF1040F01D94FF0040C1C1D072CB1
:1007E00001D2002300E0DB1E012404FA0CFCACF172
:1007F000010C0CEA0101994004FA03F35B1E1A4054
:100800001143002806DB00F1E020090180F8001404
:1008100010BC704700F00F0000F1E020090180F8E3
:10082000141D10BC704700000CED00E000F0070044
:10083000064A11684FF6FF03194041EA002040F0D4
:10084000FD7040F080601060704700000CED00E02B
:100850002DE9F04704460D46002C17D0DFF85C81E7
:10086000D8F8000000F00700A84212D2D8F8000023
:1008700020F007002843C8F80000D8F8000000F076
:100880000700A84205D00120BDE8F0870120BDE89F
:10089000F08720684A4E10F0020F14D010F0040FB9
:1008A00003D0706840F4E0607060207810F0080FAA
:1008B00003D0706840F460507060706820F0F00100
:1008C000A06808437060207810F0010F3AD060688B
:1008D000012806D002280BD0316811F0020F27D072
:1008E0000AE0316811F4003F06D10120BDE8F0872D
:1008F000316811F0007F18D0716821F003010843BE
:100900007060FFF7F1FE07467068616800F00C0048
:10091000B0EB810F16D041F28839FFF7E5FEC01B1E
:10092000484508D90320BDE8F0870120BDE8F087DD
:100930000120BDE8F0877068616800F00C00B0EB42
:10094000810FEAD1D8F8000000F00700A8420FD9C3
:10095000D8F8000020F007002843C8F80000D8F8B5
:10096000000000F00700A84202D00120BDE8F08797
:10097000207810F0040F05D07068E16820F4E06082
:1009800008437060207810F0080F06D07068216965
:1009900020F4605040EAC100706000F03FF87168D8
:1009A000084AC1F30311515CC84007490860074871
:1009B0000068FFF7B9FE0020BDE8F0870020024084
:1009C00000100240B0210008380000203000002054
:1009D00001480068704700003800002000B5FFF7AC
:1009E000F7FF04494968044AC1F30221515CC84039
:1009F00000BD000000100240C021000800B5FFF754
:100A0000E7FF04494968044AC1F3C221515CC84068
:100A100000BD000000100240C021000885B015A0F4
:100A2000836842680168C068039302920191049050
:100A300014A000680090144B5968144801F00C028F
:100A4000042A11D0082A0FD101A8C1F38342805C87
:100A500011F4803F0AD05968C1F340411DF80110DC
:100A60000A4A5043B0FBF1F005B07047084905B0A1
:100A70004843704702030405060708090A0B0C0DDA
:100A80000E0F1010010200000010024000127A0048
:100A900000093D002DE9F84F0446002C0FD02078C6
:100AA000F84D10F0010F6CD0686800F00C000428BD
:100AB0000CD0686800F00C00082803D010E001207A
:100AC000BDE8F88F686810F4803F09D0286810F4FA
:100AD000003F56D06068002853D10120BDE8F88F50
:100AE0006068B0F5803F15D0C8B1B0F5A02F1FD019
:100AF000286820F480302860286820F4802028604E
:100B0000606858B3FFF7F0FD0646286810F4003F10
:100B100017D036E0286840F480302860F0E7286875
:100B200020F480302860286820F480202860E7E7DF
:100B3000286840F480202860286840F480302860CD
:100B4000DEE7FFF7D1FD801B642802D90320BDE852
:100B5000F88F286810F4003FF3D012E0FFF7C4FDCF
:100B60000646286810F4003F0BD0FFF7BDFD801B40
:100B7000642802D90320BDE8F88F286810F4003FEC
:100B8000F3D12078C04F10F0020F4FF0010B4FF05F
:100B9000000854D0686810F00C0F14D0686800F09A
:100BA0000C00082803D1686810F4803F0BD020693E
:100BB00078B3C7F800B0FFF797FD0646286810F035
:100BC000020F12D01DE0286810F0020F05D0206936
:100BD000012802D00120BDE8F88F2868616920F063
:100BE000F80040EAC100286029E0FFF77DFD801B86
:100BF000022802D90320BDE8F88F286810F0020F00
:100C0000F3D02868616920F0F80040EAC10028604C
:100C100015E0FFE7C7F80080FFF766FD0646286885
:100C200010F0020F0BD0FFF75FFD801B022802D9E6
:100C30000320BDE8F88F286810F0020FF3D1207868
:100C400010F0080F30D09148A169C1B1C0F800B0D0
:100C5000FFF74AFD0646686A10F0020F0BD1FFF756
:100C600043FD801B022802D90320BDE8F88F686A83
:100C700010F0020FF3D0012000F06AFF14E0C0F87A
:100C80000080FFF731FD0646686A10F0020F0BD0B6
:100C9000FFF72AFD801B022802D90320BDE8F88F48
:100CA000686A10F0020FF3D1207810F0040F6FD0B3
:100CB0000026E86910F0805F08D1E86940F08050B4
:100CC000E861E86900F0805000900126DFF8C0A1DB
:100CD000DAF8000010F4807F1BD1DAF8000040F44D
:100CE0008070CAF80000FFF7FFFC8146DAF80000C8
:100CF00010F4807F0DD1FFF7F7FCA0EB090064280A
:100D000002D90320BDE8F88FDAF8000010F4807FE4
:100D1000F1D0E068012816D0D0B1052821D0286A8A
:100D200020F001002862286A20F004002862E068B0
:100D300041F2883A68B3FFF7D7FC8146286A10F081
:100D4000020F17D03AE0286A40F001002862EEE76F
:100D5000286A20F001002862286A20F00400286236
:100D6000E5E7286A40F004002862286A40F00100A4
:100D70002862DCE7FFF7B8FCA0EB0900504502D978
:100D80000320BDE8F88F286A10F0020FF2D015E0BA
:100D90001AE0FFE7FFF7A8FC8146286A10F0020F6F
:100DA0000CD0FFF7A1FCA0EB0900504502D90320AD
:100DB000BDE8F88F286A10F0020FF2D1012E03D19E
:100DC000E86920F08050E861E069E8B3696801F003
:100DD0000C0108295ED0022810D0C7F86080FFF708
:100DE00083FC0446286810F0007F66D0FFF77CFC87
:100DF000001B022841D90320BDE8F88FC7F86080A6
:100E0000FFF772FC0646286810F0007F0BD0FFF752
:100E10006BFC801B022802D90320BDE8F88F2868EC
:100E200010F0007FF3D1206AB0F5803F05D16868EB
:100E3000A16820F4003008436860616A206A0843B2
:100E4000696821F4741100E037E008436860C7F86E
:100E500060B0FFF749FC0446286810F0007F2CD1F1
:100E6000FFF742FC001B022802D90320BDE8F88FDF
:100E7000286810F0007FF3D01FE0286810F0007F92
:100E8000B4D11AE000100240000042428004424205
:100E90000070004001280DD06868226A00F480319B
:100EA000914204D1616A00F47010884205D001209B
:100EB000BDE8F88F0120BDE8F88F0020BDE8F88F6D
:100EC000401EB0F1807F01D3012070474FF0E02138
:100ED0004861044AF02010700020886107200861F2
:100EE0000020704723ED00E07047704730B490F861
:100EF0003C20012A30D0012480F83C40022280F8B6
:100F00003D200268D2F804C093682CF0700C0D6884
:100F100045EA0C0CC2F804C00268A2F1804CBCF592
:100F2000963C0CD0B2F1804F09D0A2F1804CBCF5B8
:100F3000806C04D0A2F1804CBCF5006C04D123F08D
:100F4000800349681943916080F83D40002180F892
:100F50003C1030BC0020704730BC0220704710B5F8
:100F60000446002C03D094F83D0010B107E00120A6
:100F700010BD002084F83C00204600F01FF802203D
:100F800084F83D00211D206800F026FE012084F831
:100F9000460084F83E0084F83F0084F8400084F85E
:100FA000410084F8420084F8430084F8440084F847
:100FB000450084F83D00002010BD000008B5006821
:100FC000B0F1804F12D10A48C16941F00101C161FD
:100FD000C069002200F00100009001211C20FFF7F1
:100FE000F1FBBDE808401C20FFF7DEBB08BD000098
:100FF0000010024090F83D10012901D001207047F7
:10100000022180F83D100168CA6842F00102CA60FE
:101010000068A0F18041B1F5963112D0B0F1804F57
:101020000FD0A0F18041B1F580610AD0A0F18041DC
:10103000B1F5006105D0016841F0010101600020B7
:101040007047816801F007010629F8D0016841F076
:1010500001010160F3E770B5044694F83C000128F3
:1010600018D0012584F83C50022084F83D00206807
:10107000826822F0770222F47F428260086850285A
:1010800032D00EDC20284DD006DC00284AD01028B3
:101090004DD147E0022070BD302843D0402846D1D2
:1010A00036E060282AD0702806D0B0F5805F3ED0A8
:1010B000B0F5005F3BD10BE0CB684A6889682068D7
:1010C00000F0D5FD2068816841F0770181602EE055
:1010D000CB684A688968206800F0C9FD206881688B
:1010E00041F48041816022E0CA684968206800F0CC
:1010F00094FE5021206800F0C5FD18E0CA684968D8
:10110000206800F09DFE6021206800F0BBFD0EE02D
:10111000CA684968206800F080FE4021206800F01D
:10112000B1FD04E022680146104600F0ABFD84F8F2
:101130003D50002084F83C0070BD704770B50446F7
:10114000206801694FF0000511F0020F17D0C16847
:1011500011F0020F13D0E91E0161012020772068F1
:10116000806910F0030F03D02046FFF7E6FF05E08B
:10117000204600F0C3F8204600F06CF9257720687F
:10118000016911F0040F18D0C16811F0040F14D0D8
:101190006FF004010161022020772068806910F45B
:1011A000407F03D02046FFF7C8FF05E0204600F04F
:1011B000A5F8204600F04EF925772068016911F066
:1011C000080F18D0C16811F0080F14D06FF0080193
:1011D0000161042020772068C06910F0030F03D05C
:1011E0002046FFF7AAFF05E0204600F087F82046DA
:1011F00000F030F925772068016911F0100F18D040
:10120000C16811F0100F14D06FF0100101610820B7
:1012100020772068C06910F4407F03D02046FFF794
:101220008CFF05E0204600F069F8204600F012F936
:1012300025772068016911F0010F09D0C16811F00C
:10124000010F05D06FF001010161204600F05CF94B
:101250002068016911F0800F09D0C16811F0800F7A
:1012600005D06FF0800101612046FFF73DFE206848
:10127000016911F0400F09D0C16811F0400F05D08D
:101280006FF040010161204600F074F920680169A7
:1012900011F0200F0BD0C16811F0200F07D06FF0B4
:1012A000200101612046BDE87040FFF71EBE70BD01
:1012B00000B585B000210091019102910391006871
:1012C0000B49884212D10B48816941F008018161C4
:1012D0008069694600F0080004904FF47070009037
:1012E0000220019003900448FFF7F0F805B000BD1C
:1012F0000008004000100240000C0140704770B52B
:1013000004460D4694F83C0001280AD0012084F8D8
:101310003C0042B1042A1AD0082A2DD00C2A53D1FD
:101320003EE0022070BD2946206800F0B3FC206832
:10133000816941F0080181612068816921F004011F
:101340008161206881692A69114381613CE02946F5
:10135000206800F0D3FC2068816941F4006181615C
:101360002068816921F480618161206881692A692E
:1013700041EA0221816127E02946206800F0F2FC61
:101380002068C16941F00801C1612068C16921F08C
:101390000401C1612068C1692A691143C16113E078
:1013A0002946206800F012FD2068C16941F40061FF
:1013B000C1612068C16921F48061C1612068C1698F
:1013C0002A6941EA0221C161002084F83C0070BD15
:1013D00010B50446002C03D094F83D0010B107E08E
:1013E000012010BD002084F83C00204600F01EF8CB
:1013F000022084F83D00211D206800F0EDFB012053
:1014000084F8460084F83E0084F83F0084F84000E9
:1014100084F8410084F8420084F8430084F84400D2
:1014200084F8450084F83D00002010BD08B5006830
:101430000649884208D10648C16941F00401C161EA
:10144000C06900F00400009008BD000000080040E2
:10145000001002407047000010B50446002909D072
:1014600004290AD008290BD094F8410001280AD099
:10147000012010BD94F83E00F8E794F83F00F5E72E
:1014800094F84000F2E7022089B3042933D00829F8
:1014900034D084F841000122206800F0D9FB1949BA
:1014A0002068884203D1426C42F4004242642068C2
:1014B000884212D0B0F1804F0FD0A0F18041B1F539
:1014C00080610AD0A0F18041B1F5006105D00168CA
:1014D00041F001010160002010BD816801F00701A9
:1014E0000629F8D0016841F001010160F3E7FFE748
:1014F00084F83E00CFE784F83F00CCE784F8400052
:10150000C9E70000002C014070B517490068096860
:10151000884228D1154C164D4FF400416269521C87
:101520006261E069824201DA012200E0002228467D
:10153000FFF7D2F8626A60694FF48041904201DAA5
:10154000012200E000222846FFF7C6F8E068616942
:1015500000EB8000B1EB400F05DBA069E061206A81
:1015600060620020606170BD3C000020000000202F
:10157000000C01407047704770470000F8B5044602
:1015800022681068D168536900F00F0CBCF1000F9D
:101590000AD110F0200F07D011F0200F04D0204600
:1015A000BDE8F84000F08BBC0025BCF1000F6DD009
:1015B00003F0010C01F490765CEA060666D010F0A8
:1015C000010F06D011F4807F03D0226C42F001029B
:1015D000226410F0040F06D013F0010F03D0226C28
:1015E00042F00202226410F0020F06D013F0010F45
:1015F00003D0226C42F00402226410F0080F08D0DD
:1016000001F0200252EA0C0203D0226C42F00802E0
:101610002264226C002A2FD010F0200F05D011F088
:10162000200F02D0204600F04AFC20684069C0F339
:101630008010216C11F0080F00D110B3204600F08B
:1016400019FC2068416911F0400F16D0416921F062
:1016500040014161A06B60B147494163A06BFEF757
:10166000CFFE002808D0A06B416B01B0BDE8F04070
:1016700008472046FFF780FFF8BD2046FFF77CFFB4
:10168000F8BD2046FFF778FF2564F8BD236B012BDA
:101690005BD110F0100F58D011F0100F55D010681A
:1016A0005068009050694FF0200310F0400F2ED08A
:1016B000A16B0868406880B20028E6D0B4F82CC05E
:1016C0008445E2D9E0858869202818D0D06820F4C4
:1016D0008070D0602068416921F00101416120687B
:1016E000416921F04001416184F83E302563206862
:1016F000C16821F01001C160A06BFEF75DFEA08DF6
:10170000E18D401A81B22046FFF735FFF8BDA08D6C
:10171000E18D401A81B2E08D0028F7D00029F5D084
:10172000D06820F49070D0602068426922F00102F5
:10173000426184F83E3025632068C26822F01002BE
:10174000C2602046FFF717FFF8BD10F0800F07D0EA
:1017500011F0800F04D02046BDE8F84000F08DBCA9
:1017600010F0400FF0D011F0400FEDD02046BDE852
:10177000F84000F097BB0000651E000870B50446F5
:10178000002C04D094F83D00002510B106E00120A3
:1017900070BD84F83C50204600F022F8242084F8E4
:1017A0003D002068C16821F40051C160204600F06E
:1017B000E5FB2068016921F49041016120684169DD
:1017C00021F02A0141612068C16841F40051C160E3
:1017D0002564202084F83D0084F83E00002070BD80
:1017E00030B585B0002400940194029403940068FD
:1017F000184988422CD11848816941F4804181619F
:10180000816901F480410491816941F004018161A1
:101810008069124D00F0040004904FF400700090B5
:10182000022001900320039069462846FEF74EFEF1
:101830002815CDE90004694628460294FEF746FEC5
:10184000002203212520FEF7BDFF2520FEF7ACFF77
:1018500005B030BD003801400010024000080140D2
:1018600090F83E30202B01D00220704759B152B180
:1018700090F83C30012B08D0012380F83C30002345
:10188000036300F0DFBB01207047022070470000B7
:101890002DE9F84F0068424988427ED14148424DC7
:1018A000041F0778A06A002610B1012821D008E0A3
:1018B0006078FD2805D1A078FE2802D1E078FF28C5
:1018C0000DD0A662A078E0706078A0706770BDE867
:1018D000F84F3548012233494438FFF7C1BF012092
:1018E000A062FF202870FE206870FD20A8700320F1
:1018F000207020782F54401CC0B220702628E1D1DF
:10190000A66295F82300FD28DCD195F82400FE2876
:10191000D8D195F82500FF28D4D14FF400512348A1
:10192000FEF7D2FEA6602879E9784FF4006800EB54
:10193000012040F2FF76404500DB3046FEF7CEFC4A
:10194000DFF86CA05146FEF78BFCDFF868B0594613
:10195000FEF754FC8146E068FEF7C0FC4946009063
:10196000FEF7F4FBFEF7C3FCA061A879697900EBF0
:101970000120404500DB3046FEF7B0FC5146FEF743
:101980006FFC5946FEF73AFC01460098FEF7DEFB75
:10199000FEF7ADFC206295E7FFE7BDE8F88F000099
:1019A0000038014004000020100100200010014018
:1019B00000E0FF440000C8427047FEE72DE9F04315
:1019C00085B000242948009401940294039481690D
:1019D00041F010018161816901F010010491816978
:1019E00041F020018161816901F020010491816948
:1019F00041F008018161816901F008010491816968
:101A000041F0040181618069DFF8648000F0040026
:101A10004FF400550490002229464046FEF75CFE34
:101A2000DFF850904CF23807002239464846FEF75E
:101A300053FE0095022601250396CDE9015469461F
:101A40004046FEF743FD00970396CDE901546946F1
:101A50004846FEF73BFD2802CDE9000469460648EA
:101A60000294FEF733FD05B0BDE8F083001002409C
:101A700000100140000C01400008014010B586B084
:101A800000241148009401940294039404944FF0AC
:101A90008041059401604721C0E901140921C0E992
:101AA00003148461FFF75BFA4FF48050009069469D
:101AB0000548FFF7D0FA2020CDE9040404A9024824
:101AC000FFF714FA06B010BD3C00002010B58AB034
:101AD000002407941C2168460894FEF72CFB194843
:101AE000174901604721C0E9011440F2E731C0E91C
:101AF00003148461FFF76CFC079407A9114808944C
:101B0000FFF7F4F96020CDE9000402940022694651
:101B10000C480494FFF7F3FB042269460948FFF7D9
:101B2000EEFB082269460748FFF7E9FB0C226946ED
:101B30000448FFF7E4FB0348FFF7BAFB0AB010BD07
:101B40000008004084000020FEE770477047000056
:101B500081B007494FF4FA520968B1FBF2F14843EA
:101B6000009000BF0098411E0091FAD201B070476A
:101B7000380000207047FEF7BDBD30B58FB028217A
:101B80006846FEF7D8FA14210AA8FEF7D4FA012114
:101B90000804CDE900100024029402250491CDE947
:101BA00007504FF4E01009906846FEF773FF0F20CE
:101BB000CDE90A056802CDE90C4002210AA80E947D
:101BC000FEF746FE0FB030BD704700000148FFF73A
:101BD000B5BA00003C00002030B40268194B1A4C22
:101BE000DFF868C0984206D0B0F1804F03D0A04221
:101BF00001D0604503D122F070024D682A4398421B
:101C000006D0B0F1804F03D0A04201D0604505D18D
:101C100022F44072D1F80CC04CEA0202D1F814C090
:101C200022F0800242EA0C0202608A68C2620A68FC
:101C30008262984201D1096901630121416130BC8E
:101C400070470000002C01400004004000080040E4
:101C500001F01F0101238B40D0F820C02CEA0303C0
:101C60000362036A02FA01F1194301627047D0F876
:101C700008C02CF47F4C42EA0322114341EA0C01D4
:101C800081607047826822F07002114341F00701C1
:101C90008160704710B4026A22F001020262036A96
:101CA0004268D0F818C02CF0700C2CF0030C0C68B3
:101CB00044EA0C0C23F002038C6823430E4CA04230
:101CC00006D123F00803CC6844EA030323F004039D
:101CD00009D122F4807222F400724C6944EA0202B3
:101CE0008C6944EA02024260C0F818C04968416346
:101CF000036210BC70470000002C014010B4026A5F
:101D000022F010020262036A4268D0F818C02CF474
:101D1000E04C2CF4407C0C684CEA042C23F02003AB
:101D20008C6843EA04130E4CA04206D123F08003D2
:101D3000CC6843EA041323F0400309D122F4806203
:101D400022F400624C6942EA84028C6942EA84020D
:101D50004260C0F818C049688163036210BC7047D4
:101D6000002C014010B4026A22F480720262036AFD
:101D70004268D0F81CC02CF0700C2CF0030C0C68DE
:101D800044EA0C0C23F400738C6843EA04230E4CE1
:101D9000A04206D123F40063CC6843EA042323F471
:101DA000806309D122F4805222F400524C6942EA45
:101DB00004128C6942EA04124260C0F81CC04968EF
:101DC000C163036210BC7047002C014010B4026A6A
:101DD00022F480520262036A4268D0F81CC02CF4DC
:101DE000E04C2CF4407C0C684CEA042C23F40053A7
:101DF0008C6843EA0433A0F18044B4F5963404D1EE
:101E000022F480424C6942EA84124260C0F81CC04D
:101E100049680164036210BC7047036AD0F820C0AF
:101E20002CF0010CC0F820C0D0F818C02CF0F00C39
:101E30004CEA021223F00A031943826101627047DF
:101E4000036A23F010030362D0F818C0036A2CF46D
:101E5000704C4CEA023223F0A00343EA0111826184
:101E60000162704710B5406A0021C185C184FFF747
:101E700083FB10BD0168CA6822F49072CA600168D1
:101E80004A6922F001024A61016B012904D101680B
:101E9000CA6822F01002CA60202180F83E1000219A
:101EA0000163704710B50168CA6822F04002CA6039
:101EB000202180F83D10FFF77FFD002010BD08B500
:101EC00090F83E10222901D0022008BD8268B2F5A8
:101ED000805F01D1016929B1816AB2F5805F1DD0AF
:101EE00052B10BE0816A02685268C2F308020A80AC
:101EF000816A891C816209E002697AB102685268CC
:101F000002F07F020A70816A491C8162C18D491EFC
:101F10000904090CC18505D0002008BD026852687B
:101F20000A70F0E70168CA6822F02002CA600168FE
:101F3000CA6822F48072CA6001684A6922F001020C
:101F40004A61202180F83E10016B012903D0FFF780
:101F50009FFC002008BD002101630168CA6822F0CF
:101F60001002CA6001680A6812F0100F02D00A68F5
:101F700049680091818DFFF7FEFAEAE770B50446E3
:101F800020680169E26821F440511143016121692F
:101F9000A0680843616901432068C26822F40372A3
:101FA00022F4A0521143C16020684169A26921F462
:101FB0004071114341612068A0F18041B1F59C312D
:101FC0003AD0FEF70BFD00EBC00101EB0010616899
:101FD0001B4A8900B0FBF1F3A2FB0353B0FBF1FCF9
:101FE0005B096FF018056B430CEB83034FF0320C69
:101FF0000CEB0313A2FB03535B0903F0F005B0FBEA
:10200000F1F3A2FB03635B0905EB0313B0FBF1F5EE
:10201000B0FBF1F0A2FB001040096FF0180148433B
:1020200005EB80000CEB0010A2FB00102168C0F350
:1020300043101844886070BDFEF7E0FCC3E7000061
:102040001F85EB5181628285C285002101642222B5
:1020500080F83E2080F83C100168CA6842F4807223
:10206000CA6001684A6942F001024A610068C168B9
:1020700041F02001C1600020704790F83D102129F7
:1020800001D0022070478168B1F5805F01D10169FC
:1020900061B1016A4A1C0262026809785160C18C10
:1020A000491E0904090CC1840AD013E0016A0268C0
:1020B0000988C1F308015160016A891C0162EEE7D9
:1020C0000168CA6822F08002CA600068C16841F0F5
:1020D0004001C160002070470148FFF74FBA00007F
:1020E000CC000020FEE702E008C8121F08C1002A49
:1020F000FAD170477047002001E001C1121F002A89
:10210000FBD17047FEF7FEFAFFF737FDFFF756FCED
:1021100025482449002401604FF4E131C0E901144D
:102120000C21C460C0E904418461C461FFF726FB4F
:1021300001221E491C48FFF793FBFFF7C7FCFFF77E
:102140009DFC19489038FEF755FF17480021483884
:10215000FFF782F9144804214838FFF77DF9124847
:1021600008214838FFF778F90F480C214838FFF765
:1021700073F90D48483801684C6301688C63016845
:10218000CC6300680464094C241F3220FEF78AF9EE
:10219000A068411CA1600528F7DD2069A0612062CC
:1021A000F3E7000000380140CC00002004000020CC
:1021B00000000000000000000102030406070809F7
:1021C0000000000001020304E821000800000020D4
:1021D0003C000000E6200008242200083C0000200B
:1021E000FC040000F62000080000000000000000D1
:1021F00000000000640000009600000000000000E5
:102200009600000096000000960000009600000076
:1022100000000000010000001000000000000000AD
:042220000024F400A2
:04000005080000ED02
:00000001FF
