:020000040800F2
:10000000E8040020050100084F14000863130008ED
:100010004D1400087101000871190008000000006B
:10002000000000000000000000000000791400083B
:100030007301000800000000511400087B14000840
:100040001F0100081F0100081F0100081F01000810
:100050001F0100081F0100081F0100081F01000800
:100060001F0100081F0100081F0100081F010008F0
:100070001F0100081F0100081F0100081F010008E0
:100080001F0100081F0100081F0100081F010008D0
:100090001F0100081F0100081F0100081F010008C0
:1000A0001F0100081F0100081F0100081F010008B0
:1000B0001F0100081F0100081F0100081F010008A0
:1000C0001F0100081F0100081F0100081F01000890
:1000D0001F010008651900081F0100081F01000822
:1000E0001F0100081F0100081F010008DFF810D0E1
:1000F00000F02CF80048004791190008AFF3008089
:10010000E80400200648804706480047FEE7FEE76F
:10011000FEE7FEE7FEE7FEE7FEE7FEE7FEE7FEE7B7
:10012000CD140008ED000008D2B201E000F8012B68
:10013000491EFBD270470022F6E710B513460A4667
:1001400004461946FFF7F0FF204610BD064C074D48
:1001500006E0E06840F0010394E807009847103497
:10016000AC42F6D3FFF7C6FF701A0008901A0008D9
:10017000FEE7704790F821100022022905D00421E3
:10018000816380F820200120704701680B6823F00C
:100190000E030B6001680B6823F001030B6090F8FD
:1001A0004030D0F83CC0012101FA03F3CCF8043010
:1001B00080F8211080F820201046704710B50024E8
:1001C00090F82110022903D004218163012437E033
:1001D00001680A6822F00E020A6001680A6822F0CB
:1001E00001020A60174A0168914201D101211CE015
:1001F000154A914201D1102117E0144A914201D1D0
:10020000891512E0124A914201D189140DE0114A78
:10021000914202D14FF4803107E00F4A914202D15E
:100220004FF4801101E04FF080710C4A51600121C0
:1002300080F82110002180F82010416B01B188471F
:10024000204610BD080002401C0002403000024061
:1002500044000240580002406C000240000002408E
:1002600070B5044600F01EF90546B4F1FF3F02D018
:1002700004480078044400F015F9401BA042FAD36A
:1002800070BD0000240000202DE9F84F4FF0000C55
:1002900000230A68002A7DD0DFF8DC810F2708F1EF
:1002A000040909F1040A0AF1040B012202FA0CF60E
:1002B0000A683240B2426ED1DFF8C0E14C68A4EB6C
:1002C0000E0574452BD00DDC032C34D005DC34B383
:1002D000012C19D0022C2FD11BE0112C16D0122C7E
:1002E0002AD119E0B5F5881F19D006DCB5F5803F95
:1002F00015D0B5F5801F1FD111E0B5F5001F0ED048
:10030000B5F5041F18D10AE0CB6815E0CB681B1DBA
:1003100012E0CB6808330FE0CB680C330CE08B683D
:1003200023B1012B04D00823466105E0042303E038
:100330000823066100E00023B2F5807F01D2054664
:1003400001E000F1040502D24FEA8C0403E0ACF1B5
:1003500008044FEA84042E6807FA04FE26EA0E0613
:1003600003FA04F446EA04042C604C6814F0805F3D
:1003700079D0434CA56945F00105A561A46904F055
:10038000010400942CF0030404F1804404F580344B
:10039000A66801E06EE066E04FEA8C754FEA1575DD
:1003A00007FA05FE26EA0E0EA0F18046B6F5843661
:1003B0001ED0A0F18046B6F586361BD0A0F180464F
:1003C000B6F5883618D0A0F18046B6F58A3615D035
:1003D000042606FA05F545EA0E05A5604C6814F4F6
:1003E000803F0DD0D8F800401443C8F800400CE01E
:1003F0000026EEE70126ECE70226EAE70326E8E717
:10040000D8F800409443C8F800404C6814F4003F0A
:1004100005D0D9F800401443C9F8004004E0D9F8E9
:1004200000409443C9F800404C6814F4801F05D084
:10043000DAF800401443CAF8004004E0DAF800405B
:100440009443CAF800404C6814F4001F05D0DBF850
:1004500000402243CBF8002005E0DBF8004024EA0E
:100460000202CBF800200CF1010C0A6832FA0CF2FF
:100470007FF41BAFBDE8F88F0004014000001110AD
:1004800000100240C26821EA0203114043EA014120
:1004900001617047002A01D00161704709040161C0
:1004A0007047000001488068704700002400002069
:1004B000024881680278114481607047240000205E
:1004C00010B50748016841F010010160032000F0F9
:1004D0008BF8002000F006F800F026F8002010BD90
:1004E0000020024070B504460D4D4FF47A71287813
:1004F000B1FBF0F00B490968B1FBF0F000F0BEFB76
:1005000008B1012070BD102C07D200222146501ED8
:1005100000F036F86C60002070BD012070BD000056
:1005200024000020300000200C4808B5816941F00B
:1005300001018161816901F001010091C16941F00E
:100540008051C161C06900F080500090044841684A
:1005500021F0E06141F00071416008BD00100240EF
:100560000000014000280ADB00F01F01012202FA0E
:1005700001F14009800000F1E020C0F8001170474F
:1005800010B4184B1B68C3F30223C3F1070CBCF172
:10059000040F01D94FF0040C1C1D072C01D20023BD
:1005A00000E0DB1E012404FA0CFCACF1010C0CEAA7
:1005B0000101994004FA03F35B1E1A40114300281D
:1005C00006DB00F1E020090180F8001410BC704740
:1005D00000F00F0000F1E020090180F8141D10BCAC
:1005E000704700000CED00E000F00700064A1168BB
:1005F0004FF6FF03194041EA002040F0FD7040F043
:1006000080601060704700000CED00E02DE9F047BD
:1006100004460D46002C17D0DFF85C81D8F80000A6
:1006200000F00700A84212D2D8F8000020F007001E
:100630002843C8F80000D8F8000000F00700A842DE
:1006400005D00120BDE8F0870120BDE8F0872068D3
:100650004A4E10F0020F14D010F0040F03D070684F
:1006600040F4E0607060207810F0080F03D07068EC
:1006700040F460507060706820F0F001A06808439A
:100680007060207810F0010F3AD06068012806D021
:1006900002280BD0316811F0020F27D00AE0316830
:1006A00011F4003F06D10120BDE8F087316811F058
:1006B000007F18D0716821F0030108437060FFF7D4
:1006C000F1FE07467068616800F00C00B0EB810F26
:1006D00016D041F28839FFF7E5FEC01B484508D91E
:1006E0000320BDE8F0870120BDE8F0870120BDE8C8
:1006F000F0877068616800F00C00B0EB810FEAD100
:10070000D8F8000000F00700A8420FD9D8F8000080
:1007100020F007002843C8F80000D8F8000000F0D7
:100720000700A84202D00120BDE8F087207810F031
:10073000040F05D07068E16820F4E0600843706041
:10074000207810F0080F06D07068216920F46050FE
:1007500040EAC100706000F03FF87168084AC1F3D8
:100760000311515CC8400749086007480068FFF75B
:10077000B9FE0020BDE8F0870020024000100240D2
:10078000581A0008300000202800002001480068A6
:10079000704700003000002000B5FFF7F7FF044964
:1007A0004968044AC1F30221515CC84000BD000001
:1007B00000100240681A000800B5FFF7E7FF04497F
:1007C0004968044AC1F3C221515CC84000BD000021
:1007D00000100240681A000885B015A083684268BE
:1007E0000168C068039302920191049014A000680C
:1007F0000090144B5968144801F00C02042A11D0DF
:10080000082A0FD101A8C1F38342805C11F4803F14
:100810000AD05968C1F340411DF801100A4A5043FB
:10082000B0FBF1F005B07047084905B04843704788
:1008300002030405060708090A0B0C0D0E0F101021
:10084000010200000010024000127A0000093D0081
:100850002DE9F84F0446002C0FD02078F84D10F009
:10086000010F6CD0686800F00C0004280CD0686898
:1008700000F00C00082803D010E00120BDE8F88F3C
:10088000686810F4803F09D0286810F4003F56D003
:100890006068002853D10120BDE8F88F6068B0F58A
:1008A000803F15D0C8B1B0F5A02F1FD0286820F424
:1008B00080302860286820F480202860606858B361
:1008C000FFF7F0FD0646286810F4003F17D036E029
:1008D000286840F480302860F0E7286820F48030F1
:1008E0002860286820F480202860E7E7286840F422
:1008F00080202860286840F480302860DEE7FFF719
:10090000D1FD801B642802D90320BDE8F88F286838
:1009100010F4003FF3D012E0FFF7C4FD064628684C
:1009200010F4003F0BD0FFF7BDFD801B642802D9F7
:100930000320BDE8F88F286810F4003FF3D1207839
:10094000C04F10F0020F4FF0010B4FF0000854D0D1
:10095000686810F00C0F14D0686800F00C000828CC
:1009600003D1686810F4803F0BD0206978B3C7F8D2
:1009700000B0FFF797FD0646286810F0020F12D06E
:100980001DE0286810F0020F05D02069012802D070
:100990000120BDE8F88F2868616920F0F80040EA7E
:1009A000C100286029E0FFF77DFD801B022802D9E5
:1009B0000320BDE8F88F286810F0020FF3D02868F4
:1009C000616920F0F80040EAC100286015E0FFE707
:1009D000C7F80080FFF766FD0646286810F0020F92
:1009E0000BD0FFF75FFD801B022802D90320BDE872
:1009F000F88F286810F0020FF3D1207810F0080F5C
:100A000030D09148A169C1B1C0F800B0FFF74AFDEC
:100A10000646686A10F0020F0BD1FFF743FD801BFA
:100A2000022802D90320BDE8F88F686A10F0020F8F
:100A3000F3D0012000F00EFD14E0C0F80080FFF7B5
:100A400031FD0646686A10F0020F0BD0FFF72AFD51
:100A5000801B022802D90320BDE8F88F686A10F0D5
:100A6000020FF3D1207810F0040F6FD00026E86950
:100A700010F0805F08D1E86940F08050E861E869D3
:100A800000F0805000900126DFF8C0A1DAF80000E5
:100A900010F4807F1BD1DAF8000040F48070CAF8AF
:100AA0000000FFF7FFFC8146DAF8000010F4807FB9
:100AB0000DD1FFF7F7FCA0EB0900642802D9032051
:100AC000BDE8F88FDAF8000010F4807FF1D0E0681C
:100AD000012816D0D0B1052821D0286A20F00100C5
:100AE0002862286A20F004002862E06841F2883A0F
:100AF00068B3FFF7D7FC8146286A10F0020F17D0C1
:100B00003AE0286A40F001002862EEE7286A20F007
:100B100001002862286A20F004002862E5E7286ABC
:100B200040F004002862286A40F001002862DCE7F7
:100B3000FFF7B8FCA0EB0900504502D90320BDE83F
:100B4000F88F286A10F0020FF2D015E01AE0FFE7E4
:100B5000FFF7A8FC8146286A10F0020F0CD0FFF7BF
:100B6000A1FCA0EB0900504502D90320BDE8F88F95
:100B7000286A10F0020FF2D1012E03D1E86920F0AB
:100B80008050E861E069E8B3696801F00C01082968
:100B90005ED0022810D0C7F86080FFF783FC0446BF
:100BA000286810F0007F66D0FFF77CFC001B02284D
:100BB00041D90320BDE8F88FC7F86080FFF772FCC9
:100BC0000646286810F0007F0BD0FFF76BFC801BF7
:100BD000022802D90320BDE8F88F286810F0007FB2
:100BE000F3D1206AB0F5803F05D16868A16820F490
:100BF000003008436860616A206A0843696821F42C
:100C0000741100E037E008436860C7F860B0FFF790
:100C100049FC0446286810F0007F2CD1FFF742FC05
:100C2000001B022802D90320BDE8F88F286810F0C5
:100C3000007FF3D01FE0286810F0007FB4D11AE0E5
:100C40000010024000004242800442420070004016
:100C500001280DD06868226A00F48031914204D1E5
:100C6000616A00F47010884205D00120BDE8F88F59
:100C70000120BDE8F88F0020BDE8F88F401EB0F1DC
:100C8000807F01D3012070474FF0E0214861044A82
:100C9000F020107000208861072008610020704754
:100CA00023ED00E030B490F83C20012A30D001243C
:100CB00080F83C40022280F83D200268D2F804C04F
:100CC00093682CF0700C0D6845EA0C0CC2F804C057
:100CD0000268A2F1804CBCF5963C0CD0B2F1804F7A
:100CE00009D0A2F1804CBCF5806C04D0A2F1804CFC
:100CF000BCF5006C04D123F080034968194391606E
:100D000080F83D40002180F83C1030BC0020704746
:100D100030BC02207047000000B585B00021009172
:100D200001910291039100680B49884212D10B484E
:100D3000816941F0080181618069694600F008001D
:100D400004904FF4407000900220019003900448FA
:100D5000FFF79AFA05B000BD0008004000100240FD
:100D6000000C014070B504460D4694F83C00012883
:100D70000AD0012084F83C0042B1042A1AD0082A83
:100D80002DD00C2A53D13EE0022070BD29462068A8
:100D900000F0EAFB2068816941F008018161206868
:100DA000816921F004018161206881692A69114308
:100DB00081613CE02946206800F00AFC20688169D6
:100DC00041F4006181612068816921F48061816161
:100DD000206881692A6941EA0221816127E0294668
:100DE000206800F029FC2068C16941F00801C16158
:100DF0002068C16921F00401C1612068C1692A69C4
:100E00001143C16113E02946206800F049FC2068C5
:100E1000C16941F40061C1612068C16921F4806148
:100E2000C1612068C1692A6941EA0221C1610020CB
:100E300084F83C0070BD10B50446002C03D094F833
:100E40003D0010B107E0012010BD002084F83C00F7
:100E5000204600F01FF8022084F83D00211D206884
:100E600000F036FB012084F8460084F83E0084F848
:100E70003F0084F8400084F8410084F8420084F880
:100E8000430084F8440084F8450084F83D000020C5
:100E900010BD000008B500680649884208D1064820
:100EA000C16941F00401C161C06900F00400009013
:100EB00008BD0000000800400010024010B50446C4
:100EC000002909D004290AD008290BD094F8410040
:100ED00001280AD0012010BD94F83E00F8E794F8EC
:100EE0003F00F5E794F84000F2E7022089B30429B7
:100EF00033D0082934D084F841000122206800F062
:100F000023FB19492068884203D1426C42F4004215
:100F100042642068884212D0B0F1804F0FD0A0F117
:100F20008041B1F580610AD0A0F18041B1F5006146
:100F300005D0016841F001010160002010BD816809
:100F400001F007010629F8D0016841F001010160B4
:100F5000F3E7FFE784F83E00CFE784F83F00CCE7F3
:100F600084F84000C9E70000002C0140704770473A
:100F7000F8B5044622681068D168536900F00F0C78
:100F8000BCF1000F0AD110F0200F07D011F0200F94
:100F900004D02046BDE8F84000F0D6BB0025BCF1E7
:100FA000000F6DD003F0010C01F490765CEA0606A8
:100FB00066D010F0010F06D011F4807F03D0226CB0
:100FC00042F00102226410F0040F06D013F0010F6A
:100FD00003D0226C42F00202226410F0020F06D00D
:100FE00013F0010F03D0226C42F00402226410F0CF
:100FF000080F08D001F0200252EA0C0203D0226C44
:1010000042F008022264226C002A2FD010F0200F38
:1010100005D011F0200F02D0204600F095FB20688B
:101020004069C0F38010216C11F0080F00D110B39B
:10103000204600F064FB2068416911F0400F16D093
:10104000416921F040014161A06B60B147494163B2
:10105000A06BFFF7B3F8002808D0A06B416B01B07C
:10106000BDE8F04008472046FFF781FFF8BD204665
:10107000FFF77DFFF8BD2046FFF779FF2564F8BD37
:10108000236B012B5BD110F0100F58D011F0100F13
:1010900055D010685068009050694FF0200310F050
:1010A000400F2ED0A16B0868406880B20028E6D0BF
:1010B000B4F82CC08445E2D9E0858869202818D08E
:1010C000D06820F48070D0602068416921F001016F
:1010D00041612068416921F04001416184F83E305E
:1010E00025632068C16821F01001C160A06BFFF783
:1010F00041F8A08DE18D401A81B22046FFF736FFFE
:10110000F8BDA08DE18D401A81B2E08D0028F7D0A6
:101110000029F5D0D06820F49070D0602068426932
:1011200022F00102426184F83E3025632068C268E3
:1011300022F01002C2602046FFF718FFF8BD10F041
:10114000800F07D011F0800F04D02046BDE8F84092
:1011500000F0D9BB10F0400FF0D011F0400FEDD0EF
:101160002046BDE8F84000F0E2BA0000EF160008A3
:1011700070B50446002C04D094F83D00002510B151
:1011800006E0012070BD84F83C50204600F022F8B3
:10119000242084F83D002068C16821F40051C1601A
:1011A000204600F031FB2068016921F49041016183
:1011B0002068416921F02A0141612068C16841F439
:1011C0000051C1602564202084F83D0084F83E0071
:1011D000002070BD30B585B00024009401940294C5
:1011E00003940068184988422CD11848816941F459
:1011F00080418161816901F480410491816941F0FC
:10120000040181618069124D00F0040004904FF4E4
:101210000070009002200190032003906946284648
:10122000FFF732F82815CDE90004694628460294F4
:10123000FFF72AF8002203212520FFF7A1F9252036
:10124000FFF790F905B030BD0038014000100240B2
:101250000008014090F83E30202B01D0022070475A
:1012600059B152B190F83C30012B08D0012380F8DD
:101270003C300023036300F02BBB012070470220A9
:10128000704700002DE9F0410068314988425DD186
:101290003048314D041F0778206A002610B101281C
:1012A00021D008E06078FD2805D1A078FE2802D181
:1012B000E078FF280DD02662A078E0706078A070FA
:1012C0006770BDE8F0412448012222494438FFF705
:1012D000C1BF01202062FF202870FE206870FD2021
:1012E000A8700320207020782F54401CC0B22070BA
:1012F0002628E1D1266295F82300FD28DCD195F857
:101300002400FE28D8D195F82500FF28D4D14FF429
:1013100000511248FFF7B6F8A6602879E97800EB8B
:1013200001206169884200DD08462269904200DAA6
:101330001046A061A8796B7900EB0320884200DD9C
:101340000846904200DA1046E061B5E7BDE8F0815A
:101350000038014004000020C000002000100140BF
:101360007047FEE770B586B000241C4800940194D5
:1013700002940394816941F010018161816901F057
:1013800010010491816941F020018161816901F0BE
:1013900020010491816941F004018161816901F0BA
:1013A00004010491816941F00801816180690C4E5A
:1013B00000F008004FF40055049000222946304602
:1013C000FFF768F801200095CDE9010402200390A1
:1013D00069463046FEF758FF06B070BD0010024067
:1013E0000010014010B58AB0002407941C21684603
:1013F0000894FEF7A0FE1448124901604721C0E995
:10140000011442F20F71C0E903148461FFF713FD68
:10141000079407A90C480894FFF744FC6020CDE925
:10142000000402940822694607480494FFF79AFCD6
:101430000C2269460448FFF795FC0348FFF76CFC53
:101440000AB010BD0008004034000020FEE77047DD
:101450007047000081B007494FF4FA520968B1FBA8
:10146000F2F14843009000BF0098411E0091FAD26B
:1014700001B07047300000207047FFF719B830B551
:101480008FB028216846FEF756FE14210AA8FEF701
:1014900052FE01210804CDE9001000240294022527
:1014A0000491CDE907504FF4E01009906846FFF72A
:1014B000CFF90F20CDE90A056802CDE90C400221E1
:1014C0000AA80E94FFF7A2F80FB030BD70470000D5
:1014D00030B40268194B1A4CDFF868C0984206D045
:1014E000B0F1804F03D0A04201D0604503D122F07B
:1014F00070024D682A43984206D0B0F1804F03D065
:10150000A04201D0604505D122F44072D1F80CC050
:101510004CEA0202D1F814C022F0800242EA0C0226
:1015200002608A68C2620A688262984201D10969CF
:1015300001630121416130BC70470000002C014073
:10154000000400400008004001F01F0101238B400F
:10155000D0F820C02CEA03030362036A02FA01F107
:10156000194301627047000010B4026A22F00102C0
:101570000262036A4268D0F818C02CF0700C2CF09C
:10158000030C0C6844EA0C0C23F002038C68234320
:101590000E4CA04206D123F00803CC6844EA0303B2
:1015A00023F0040309D122F4807222F400724C6902
:1015B00044EA02028C6944EA02024260C0F818C0A0
:1015C00049684163036210BC70470000002C014071
:1015D00010B4026A22F010020262036A4268D0F874
:1015E00018C02CF4E04C2CF4407C0C684CEA042C21
:1015F00023F020038C6843EA04130E4CA04206D16A
:1016000023F08003CC6843EA041323F0400309D19C
:1016100022F4806222F400624C6942EA84028C69FE
:1016200042EA84024260C0F818C0496881630362DC
:1016300010BC7047002C014010B4026A22F4807282
:101640000262036A4268D0F81CC02CF0700C2CF0C7
:10165000030C0C6844EA0C0C23F400738C6843EA16
:1016600004230E4CA04206D123F40063CC6843EA65
:10167000042323F4806309D122F4805222F400521F
:101680004C6942EA04128C6942EA04124260C0F8D2
:101690001CC04968C163036210BC7047002C014044
:1016A00010B4026A22F480520262036A4268D0F8DF
:1016B0001CC02CF4E04C2CF4407C0C684CEA042C4C
:1016C00023F400538C6843EA0433A0F18044B4F55A
:1016D000963404D122F480424C6942EA841242607A
:1016E000C0F81CC049680164036210BC704710B5A3
:1016F000406A0021C185C184FFF739FC10BD016833
:10170000CA6822F49072CA6001684A6922F0010234
:101710004A61016B012904D10168CA6822F01002F4
:10172000CA60202180F83E1000210163704710B587
:101730000168CA6822F04002CA60202180F83D108A
:10174000FFF70EFE002010BD08B590F83E102229CC
:1017500001D0022008BD8268B2F5805F01D1016925
:1017600029B1816AB2F5805F1DD052B10BE0816A68
:1017700002685268C2F308020A80816A891C816289
:1017800009E002697AB10268526802F07F020A70C9
:10179000816A491C8162C18D491E0904090CC185F9
:1017A00005D0002008BD026852680A70F0E70168A1
:1017B000CA6822F02002CA600168CA6822F48072F6
:1017C000CA6001684A6922F001024A61202180F85A
:1017D0003E10016B012903D0FFF754FD002008BD26
:1017E000002101630168CA6822F01002CA60016822
:1017F0000A6812F0100F02D00A6849680091818DC2
:10180000FFF7B4FBEAE7000070B504462068016901
:10181000E26821F44051114301612169A068084345
:10182000616901432068C26822F4037222F4A05265
:101830001143C16020684169A26921F440711143DC
:1018400041612068A0F18041B1F59C313AD0FEF7AA
:10185000A3FF00EBC00101EB001061681B4A890087
:10186000B0FBF1F3A2FB0353B0FBF1FC5B096FF09B
:1018700018056B430CEB83034FF0320C0CEB031396
:10188000A2FB03535B0903F0F005B0FBF1F3A2FBED
:1018900003635B0905EB0313B0FBF1F5B0FBF1F05B
:1018A000A2FB001040096FF01801484305EB8000CF
:1018B0000CEB0010A2FB00102168C0F34310184489
:1018C000886070BDFEF778FFC3E700001F85EB510D
:1018D00081628285C28500210164222280F83E2037
:1018E00080F83C100168CA6842F48072CA600168DE
:1018F0004A6942F001024A610068C16841F0200172
:10190000C1600020704790F83D10212901D00220CD
:1019100070478168B1F5805F01D1016961B1016AE9
:101920004A1C0262026809785160C18C491E090490
:10193000090CC1840AD013E0016A02680988C1F366
:1019400008015160016A891C0162EEE70168CA68FA
:1019500022F08002CA600068C16841F04001C160A5
:10196000002070470148FFF703BB00007C00002007
:10197000FEE702E008C8121F08C1002AFAD170472A
:101980007047002001E001C1121F002AFBD17047FF
:10199000FEF796FDFFF773FDFFF7E4FC2B482A499D
:1019A000002401604FF4E131C0E901140C21C4604E
:1019B000C0E904418461C461FFF7DAFB01222449D4
:1019C0002248FFF747FCFFF70DFD20480821483863
:1019D000FFF774FA1D480C214838FFF76FFA1B4DCA
:1019E00040F2DC50483D2968C86329680864A04675
:1019F000174C6426DFF85CA042F210774FF40059D0
:101A0000241F0A20FEF72CFCA06890FBF6F106FBD1
:101A1000110149B91E2807DDB84201DDC4F808806C
:101A200049465046FEF72EFDA068411CA1601928CA
:101A300002DDE068A061E0612968A069C8632968E7
:101A4000E0690864DDE70000003801407C00002008
:101A50000400002000100140000000000000000011
:101A60000102030406070809000000000102030444
:101A7000901A0008000000203400000072190008CD
:101A8000C41A000834000020B404000082190008C1
:101A9000000000000000000000000000DC05000065
:101AA000E8030000D0070000DC050000DC050000B2
:101AB0000000000001000000100000000000000015
:041AC0000024F4000A
:04000005080000ED02
:00000001FF
